{
  "contractName": "RedHat",
  "abi": [
    {
      "inputs": [],
      "payable": false,
      "stateMutability": "nonpayable",
      "type": "constructor"
    },
    {
      "anonymous": false,
      "inputs": [
        {
          "indexed": true,
          "internalType": "address",
          "name": "_to",
          "type": "address"
        }
      ],
      "name": "RedHatEarned",
      "type": "event"
    },
    {
      "constant": false,
      "inputs": [
        {
          "internalType": "address",
          "name": "receiver",
          "type": "address"
        }
      ],
      "name": "earnRedHat",
      "outputs": [
        {
          "internalType": "bool",
          "name": "sufficient",
          "type": "bool"
        }
      ],
      "payable": false,
      "stateMutability": "nonpayable",
      "type": "function"
    },
    {
      "constant": true,
      "inputs": [
        {
          "internalType": "address",
          "name": "addr",
          "type": "address"
        }
      ],
      "name": "getHats",
      "outputs": [
        {
          "internalType": "uint256",
          "name": "",
          "type": "uint256"
        }
      ],
      "payable": false,
      "stateMutability": "view",
      "type": "function"
    }
  ],
  "bytecode": "0x608060405234801561001057600080fd5b5060008060003273ffffffffffffffffffffffffffffffffffffffff1673ffffffffffffffffffffffffffffffffffffffff16815260200190815260200160002081905550610258806100646000396000f3fe608060405234801561001057600080fd5b50600436106100365760003560e01c80633c632ca41461003b57806390efaf4714610093575b600080fd5b61007d6004803603602081101561005157600080fd5b81019080803573ffffffffffffffffffffffffffffffffffffffff1690602001909291905050506100ef565b6040518082815260200191505060405180910390f35b6100d5600480360360208110156100a957600080fd5b81019080803573ffffffffffffffffffffffffffffffffffffffff169060200190929190505050610137565b604051808215151515815260200191505060405180910390f35b60008060008373ffffffffffffffffffffffffffffffffffffffff1673ffffffffffffffffffffffffffffffffffffffff168152602001908152602001600020549050919050565b600060016000808473ffffffffffffffffffffffffffffffffffffffff1673ffffffffffffffffffffffffffffffffffffffff168152602001908152602001600020541415610189576000905061021e565b60016000808473ffffffffffffffffffffffffffffffffffffffff1673ffffffffffffffffffffffffffffffffffffffff168152602001908152602001600020600082825401925050819055508173ffffffffffffffffffffffffffffffffffffffff167f60d9af75cb63b689b69d823086bff5f99b37f6b9997597c4ee4cc6dc3e2adec160405160405180910390a2600190505b91905056fea265627a7a72315820262b09f5849f58adfbe913056e53881af5240a804f08423ab122bcf35cd6487c64736f6c63430005100032",
  "source": "pragma solidity >=0.4.25 <0.7.0;\r\n\r\ncontract RedHat {\r\n\tmapping (address => uint) hats;\r\n\t\r\n\tevent RedHatEarned(address indexed _to);\r\n\r\n\tconstructor() public {\r\n\t\thats[tx.origin] = 0;\r\n\t}\r\n\t\r\n\tfunction earnRedHat(address receiver) public returns(bool sufficient) {\r\n\t\tif (hats[receiver] == 1) return false;\r\n\t\thats[receiver] += 1;\r\n\t\temit RedHatEarned(receiver);\r\n\t\treturn true;\r\n\t}\r\n\t\r\n\tfunction getHats(address addr) public view returns(uint) {\r\n\t\treturn hats[addr];\r\n\t}\r\n}",
  "sourcePath": "C:\\Users\\geoandri\\MetaCoin\\contracts\\RedHat.sol",
  "compiler": {
    "name": "solc",
    "version": "0.5.16+commit.9c3226ce.Emscripten.clang"
  },
  "schemaVersion": "3.0.23",
  "updatedAt": "2020-02-02T20:14:30.903Z",
  "networkType": "ethereum",
  "devdoc": {
    "methods": {}
  },
  "userdoc": {
    "methods": {}
  }
}